:1000000035C044C043C042C041C040C03FC03EC0F4
:100010003DC03CC03BC079C039C038C037C036C0D5
:1000200035C034C033C032C031C030C02FC02EC044
:100030002DC02CC05E1454144F1447143F144F1499
:100040003F0C431454144314001047145914470C24
:100050005E1454144F1447143F144F143F145E138E
:100060006A133F144F143F146A0B000811241FBE7B
:10007000CFEFD2E0DEBFCDBF21E0A0E0B1E001C014
:100080001D92A430B207E1F781D0C5C0B9CF15B831
:10009000239882E48093B0001092B30008950097F3
:1000A00039F097709093B1008093B300239A08952C
:1000B00023980895AC01272F26952695269530E0A4
:1000C000C9018770992761E070E001C0660F8A95C9
:1000D000EAF793E0369527959A95E1F720FD02C05F
:1000E00091E001C093E0969F602D112436952795ED
:1000F000962F921B692F70E0CA0179D0CB01089529
:1001000084B183FB882780F908951F920F920FB660
:100110000F9211248F939F93AF93BF93809100010F
:1001200090910101A0910201B09103010196A11DDE
:10013000B11D8093000190930101A0930201B0933F
:100140000301BF91AF919F918F910F900FBE0F90C0
:100150001F901895E1E8F0E080818A60808381E05B
:100160008093890084EF80938800EFE6F0E080813F
:10017000826080830895F89460910001709101017C
:10018000809102019091030178940895E3DF7894BF
:100190007EDFF1DF2B013C01C0E0D0E080E090E0A9
:1001A0006C01E12CF12CE7DF4B015C01DC01CB01A0
:1001B00084199509A609B709C816D906EA06FB06E7
:1001C00090F7FE01EE0FFF1FEC5CFF4FE590F490FF
:1001D000C70165DFB70180EA9FE06CDF2196CC3173
:1001E000D10510F0C0E0D0E024013501D9CFAA1B21
:1001F000BB1B51E107C0AA1FBB1FA617B70710F012
:10020000A61BB70B881F991F5A95A9F78095909543
:0A021000BC01CD010895F894FFCF62
:00000001FF
